{
  "_format": "hh-sol-artifact-1",
  "contractName": "Notes",
  "sourceName": "contracts/Notes.sol",
  "abi": [
    {
      "anonymous": false,
      "inputs": [
        {
          "indexed": false,
          "internalType": "uint256",
          "name": "id",
          "type": "uint256"
        },
        {
          "indexed": false,
          "internalType": "string",
          "name": "content",
          "type": "string"
        },
        {
          "indexed": true,
          "internalType": "address",
          "name": "owner",
          "type": "address"
        }
      ],
      "name": "NoteCreated",
      "type": "event"
    },
    {
      "anonymous": false,
      "inputs": [
        {
          "indexed": false,
          "internalType": "uint256",
          "name": "id",
          "type": "uint256"
        }
      ],
      "name": "NoteDeleted",
      "type": "event"
    },
    {
      "anonymous": false,
      "inputs": [
        {
          "indexed": false,
          "internalType": "uint256",
          "name": "id",
          "type": "uint256"
        },
        {
          "indexed": false,
          "internalType": "string",
          "name": "newContent",
          "type": "string"
        }
      ],
      "name": "NoteUpdated",
      "type": "event"
    },
    {
      "inputs": [
        {
          "internalType": "string",
          "name": "_content",
          "type": "string"
        }
      ],
      "name": "createNote",
      "outputs": [],
      "stateMutability": "nonpayable",
      "type": "function"
    },
    {
      "inputs": [
        {
          "internalType": "uint256",
          "name": "_noteId",
          "type": "uint256"
        }
      ],
      "name": "deleteNote",
      "outputs": [],
      "stateMutability": "nonpayable",
      "type": "function"
    },
    {
      "inputs": [],
      "name": "getMyNotes",
      "outputs": [
        {
          "components": [
            {
              "internalType": "uint256",
              "name": "id",
              "type": "uint256"
            },
            {
              "internalType": "string",
              "name": "content",
              "type": "string"
            },
            {
              "internalType": "address",
              "name": "owner",
              "type": "address"
            },
            {
              "internalType": "uint256",
              "name": "createdAt",
              "type": "uint256"
            }
          ],
          "internalType": "struct Notes.Note[]",
          "name": "",
          "type": "tuple[]"
        }
      ],
      "stateMutability": "view",
      "type": "function"
    },
    {
      "inputs": [
        {
          "internalType": "uint256",
          "name": "_noteId",
          "type": "uint256"
        }
      ],
      "name": "getNote",
      "outputs": [
        {
          "internalType": "uint256",
          "name": "",
          "type": "uint256"
        },
        {
          "internalType": "string",
          "name": "",
          "type": "string"
        },
        {
          "internalType": "address",
          "name": "",
          "type": "address"
        },
        {
          "internalType": "uint256",
          "name": "",
          "type": "uint256"
        }
      ],
      "stateMutability": "view",
      "type": "function"
    },
    {
      "inputs": [],
      "name": "getTotalNotes",
      "outputs": [
        {
          "internalType": "uint256",
          "name": "",
          "type": "uint256"
        }
      ],
      "stateMutability": "view",
      "type": "function"
    },
    {
      "inputs": [
        {
          "internalType": "address",
          "name": "",
          "type": "address"
        }
      ],
      "name": "ownerNoteCount",
      "outputs": [
        {
          "internalType": "uint256",
          "name": "",
          "type": "uint256"
        }
      ],
      "stateMutability": "view",
      "type": "function"
    },
    {
      "inputs": [
        {
          "internalType": "uint256",
          "name": "_noteId",
          "type": "uint256"
        },
        {
          "internalType": "string",
          "name": "_newContent",
          "type": "string"
        }
      ],
      "name": "updateNote",
      "outputs": [],
      "stateMutability": "nonpayable",
      "type": "function"
    }
  ],
  "bytecode": "0x608060405234801561001057600080fd5b50611592806100206000396000f3fe608060405234801561001057600080fd5b506004361061007d5760003560e01c806386f17bb71161005b57806386f17bb7146100ec578063a965a9411461010a578063c47177f41461013d578063e1250ab4146101595761007d565b806323c2ea481461008257806349781ef9146100a05780634f153ece146100bc575b600080fd5b61008a610175565b6040516100979190610afa565b60405180910390f35b6100ba60048036038101906100b59190610c9b565b610181565b005b6100d660048036038101906100d19190610d55565b6102cf565b6040516100e39190610afa565b60405180910390f35b6100f46102e7565b6040516101019190610f44565b60405180910390f35b610124600480360381019061011f9190610f66565b610583565b6040516101349493929190610fec565b60405180910390f35b61015760048036038101906101529190610f66565b6106c5565b005b610173600480360381019061016e9190611038565b6108bf565b005b60008080549050905090565b60008054905082106101c8576040517f08c379a00000000000000000000000000000000000000000000000000000000081526004016101bf906110cd565b60405180910390fd5b60008083815481106101dd576101dc6110ed565b5b906000526020600020906004020190503373ffffffffffffffffffffffffffffffffffffffff168160020160009054906101000a900473ffffffffffffffffffffffffffffffffffffffff1673ffffffffffffffffffffffffffffffffffffffff161461027f576040517f08c379a00000000000000000000000000000000000000000000000000000000081526004016102769061118e565b60405180910390fd5b8181600101908161029091906113ba565b507ff4a9990466472e087350221001dbdf2f5f11c2bcb1019e44fc8449ff3999eb9483836040516102c292919061148c565b60405180910390a1505050565b60016020528060005260406000206000915090505481565b606060006102f3610175565b90506000600160003373ffffffffffffffffffffffffffffffffffffffff1673ffffffffffffffffffffffffffffffffffffffff16815260200190815260200160002054905060008167ffffffffffffffff81111561035557610354610b70565b5b60405190808252806020026020018201604052801561038e57816020015b61037b610a46565b8152602001906001900390816103735790505b5090506000805b84811015610578573373ffffffffffffffffffffffffffffffffffffffff16600082815481106103c8576103c76110ed565b5b906000526020600020906004020160020160009054906101000a900473ffffffffffffffffffffffffffffffffffffffff1673ffffffffffffffffffffffffffffffffffffffff160361056b5760008181548110610429576104286110ed565b5b90600052602060002090600402016040518060800160405290816000820154815260200160018201805461045c906111dd565b80601f0160208091040260200160405190810160405280929190818152602001828054610488906111dd565b80156104d55780601f106104aa576101008083540402835291602001916104d5565b820191906000526020600020905b8154815290600101906020018083116104b857829003601f168201915b505050505081526020016002820160009054906101000a900473ffffffffffffffffffffffffffffffffffffffff1673ffffffffffffffffffffffffffffffffffffffff1673ffffffffffffffffffffffffffffffffffffffff168152602001600382015481525050838381518110610551576105506110ed565b5b60200260200101819052508180610567906114eb565b9250505b8080600101915050610395565b508194505050505090565b6000606060008060008054905085106105d1576040517f08c379a00000000000000000000000000000000000000000000000000000000081526004016105c8906110cd565b60405180910390fd5b60008086815481106105e6576105e56110ed565b5b906000526020600020906004020190508060000154816001018260020160009054906101000a900473ffffffffffffffffffffffffffffffffffffffff168360030154828054610635906111dd565b80601f0160208091040260200160405190810160405280929190818152602001828054610661906111dd565b80156106ae5780601f10610683576101008083540402835291602001916106ae565b820191906000526020600020905b81548152906001019060200180831161069157829003601f168201915b505050505092509450945094509450509193509193565b600080549050811061070c576040517f08c379a0000000000000000000000000000000000000000000000000000000008152600401610703906110cd565b60405180910390fd5b6000808281548110610721576107206110ed565b5b906000526020600020906004020190503373ffffffffffffffffffffffffffffffffffffffff168160020160009054906101000a900473ffffffffffffffffffffffffffffffffffffffff1673ffffffffffffffffffffffffffffffffffffffff16146107c3576040517f08c379a00000000000000000000000000000000000000000000000000000000081526004016107ba9061118e565b60405180910390fd5b600082815481106107d7576107d66110ed565b5b90600052602060002090600402016000808201600090556001820160006107fe9190610a84565b6002820160006101000a81549073ffffffffffffffffffffffffffffffffffffffff021916905560038201600090555050600160003373ffffffffffffffffffffffffffffffffffffffff1673ffffffffffffffffffffffffffffffffffffffff168152602001908152602001600020600081548092919061087f90611533565b91905055507f89af6ba62ab348dc535a3187c267090f834c868a3820cd552a7110c3dc3eedb8826040516108b39190610afa565b60405180910390a15050565b600080805490509050600060405180608001604052808381526020018481526020013373ffffffffffffffffffffffffffffffffffffffff16815260200142815250908060018154018082558091505060019003906000526020600020906004020160009091909190915060008201518160000155602082015181600101908161094991906113ba565b5060408201518160020160006101000a81548173ffffffffffffffffffffffffffffffffffffffff021916908373ffffffffffffffffffffffffffffffffffffffff160217905550606082015181600301555050600160003373ffffffffffffffffffffffffffffffffffffffff1673ffffffffffffffffffffffffffffffffffffffff16815260200190815260200160002060008154809291906109ed906114eb565b91905055503373ffffffffffffffffffffffffffffffffffffffff167f12f69066f9b95f56404d1a1c21d5463f6b6c36f7eccac9d1ebf74ae435178cc28284604051610a3a92919061148c565b60405180910390a25050565b60405180608001604052806000815260200160608152602001600073ffffffffffffffffffffffffffffffffffffffff168152602001600081525090565b508054610a90906111dd565b6000825580601f10610aa25750610ac1565b601f016020900490600052602060002090810190610ac09190610ac4565b5b50565b5b80821115610add576000816000905550600101610ac5565b5090565b6000819050919050565b610af481610ae1565b82525050565b6000602082019050610b0f6000830184610aeb565b92915050565b6000604051905090565b600080fd5b600080fd5b610b3281610ae1565b8114610b3d57600080fd5b50565b600081359050610b4f81610b29565b92915050565b600080fd5b600080fd5b6000601f19601f8301169050919050565b7f4e487b7100000000000000000000000000000000000000000000000000000000600052604160045260246000fd5b610ba882610b5f565b810181811067ffffffffffffffff82111715610bc757610bc6610b70565b5b80604052505050565b6000610bda610b15565b9050610be68282610b9f565b919050565b600067ffffffffffffffff821115610c0657610c05610b70565b5b610c0f82610b5f565b9050602081019050919050565b82818337600083830152505050565b6000610c3e610c3984610beb565b610bd0565b905082815260208101848484011115610c5a57610c59610b5a565b5b610c65848285610c1c565b509392505050565b600082601f830112610c8257610c81610b55565b5b8135610c92848260208601610c2b565b91505092915050565b60008060408385031215610cb257610cb1610b1f565b5b6000610cc085828601610b40565b925050602083013567ffffffffffffffff811115610ce157610ce0610b24565b5b610ced85828601610c6d565b9150509250929050565b600073ffffffffffffffffffffffffffffffffffffffff82169050919050565b6000610d2282610cf7565b9050919050565b610d3281610d17565b8114610d3d57600080fd5b50565b600081359050610d4f81610d29565b92915050565b600060208284031215610d6b57610d6a610b1f565b5b6000610d7984828501610d40565b91505092915050565b600081519050919050565b600082825260208201905092915050565b6000819050602082019050919050565b610db781610ae1565b82525050565b600081519050919050565b600082825260208201905092915050565b60005b83811015610df7578082015181840152602081019050610ddc565b60008484015250505050565b6000610e0e82610dbd565b610e188185610dc8565b9350610e28818560208601610dd9565b610e3181610b5f565b840191505092915050565b610e4581610d17565b82525050565b6000608083016000830151610e636000860182610dae565b5060208301518482036020860152610e7b8282610e03565b9150506040830151610e906040860182610e3c565b506060830151610ea36060860182610dae565b508091505092915050565b6000610eba8383610e4b565b905092915050565b6000602082019050919050565b6000610eda82610d82565b610ee48185610d8d565b935083602082028501610ef685610d9e565b8060005b85811015610f325784840389528151610f138582610eae565b9450610f1e83610ec2565b925060208a01995050600181019050610efa565b50829750879550505050505092915050565b60006020820190508181036000830152610f5e8184610ecf565b905092915050565b600060208284031215610f7c57610f7b610b1f565b5b6000610f8a84828501610b40565b91505092915050565b600082825260208201905092915050565b6000610faf82610dbd565b610fb98185610f93565b9350610fc9818560208601610dd9565b610fd281610b5f565b840191505092915050565b610fe681610d17565b82525050565b60006080820190506110016000830187610aeb565b81810360208301526110138186610fa4565b90506110226040830185610fdd565b61102f6060830184610aeb565b95945050505050565b60006020828403121561104e5761104d610b1f565b5b600082013567ffffffffffffffff81111561106c5761106b610b24565b5b61107884828501610c6d565b91505092915050565b7f4e6f746520646f6573206e6f7420657869737400000000000000000000000000600082015250565b60006110b7601383610f93565b91506110c282611081565b602082019050919050565b600060208201905081810360008301526110e6816110aa565b9050919050565b7f4e487b7100000000000000000000000000000000000000000000000000000000600052603260045260246000fd5b7f596f7520617265206e6f7420746865206f776e6572206f662074686973206e6f60008201527f7465000000000000000000000000000000000000000000000000000000000000602082015250565b6000611178602283610f93565b91506111838261111c565b604082019050919050565b600060208201905081810360008301526111a78161116b565b9050919050565b7f4e487b7100000000000000000000000000000000000000000000000000000000600052602260045260246000fd5b600060028204905060018216806111f557607f821691505b602082108103611208576112076111ae565b5b50919050565b60008190508160005260206000209050919050565b60006020601f8301049050919050565b600082821b905092915050565b6000600883026112707fffffffffffffffffffffffffffffffffffffffffffffffffffffffffffffffff82611233565b61127a8683611233565b95508019841693508086168417925050509392505050565b6000819050919050565b60006112b76112b26112ad84610ae1565b611292565b610ae1565b9050919050565b6000819050919050565b6112d18361129c565b6112e56112dd826112be565b848454611240565b825550505050565b600090565b6112fa6112ed565b6113058184846112c8565b505050565b5b818110156113295761131e6000826112f2565b60018101905061130b565b5050565b601f82111561136e5761133f8161120e565b61134884611223565b81016020851015611357578190505b61136b61136385611223565b83018261130a565b50505b505050565b600082821c905092915050565b600061139160001984600802611373565b1980831691505092915050565b60006113aa8383611380565b9150826002028217905092915050565b6113c382610dbd565b67ffffffffffffffff8111156113dc576113db610b70565b5b6113e682546111dd565b6113f182828561132d565b600060209050601f8311600181146114245760008415611412578287015190505b61141c858261139e565b865550611484565b601f1984166114328661120e565b60005b8281101561145a57848901518255600182019150602085019450602081019050611435565b868310156114775784890151611473601f891682611380565b8355505b6001600288020188555050505b505050505050565b60006040820190506114a16000830185610aeb565b81810360208301526114b38184610fa4565b90509392505050565b7f4e487b7100000000000000000000000000000000000000000000000000000000600052601160045260246000fd5b60006114f682610ae1565b91507fffffffffffffffffffffffffffffffffffffffffffffffffffffffffffffffff8203611528576115276114bc565b5b600182019050919050565b600061153e82610ae1565b915060008203611551576115506114bc565b5b60018203905091905056fea26469706673582212209823ae2b3b579d2ad17178779ab40bdfac4c07d65557f8f233649d802d059b6164736f6c63430008180033",
  "linkReferences": {},
  "deployedLinkReferences": {}
}